{
  "contractName": "Art",
  "abi": [
    {
      "inputs": [
        {
          "internalType": "address",
          "name": "token_",
          "type": "address"
        }
      ],
      "stateMutability": "nonpayable",
      "type": "constructor"
    },
    {
      "anonymous": false,
      "inputs": [
        {
          "indexed": true,
          "internalType": "address",
          "name": "owner",
          "type": "address"
        },
        {
          "indexed": true,
          "internalType": "uint256",
          "name": "tokenId",
          "type": "uint256"
        }
      ],
      "name": "Auction",
      "type": "event"
    },
    {
      "anonymous": false,
      "inputs": [
        {
          "indexed": true,
          "internalType": "address",
          "name": "bider",
          "type": "address"
        },
        {
          "indexed": true,
          "internalType": "uint256",
          "name": "price",
          "type": "uint256"
        },
        {
          "indexed": true,
          "internalType": "uint256",
          "name": "time",
          "type": "uint256"
        }
      ],
      "name": "Bid",
      "type": "event"
    },
    {
      "anonymous": false,
      "inputs": [
        {
          "indexed": true,
          "internalType": "address",
          "name": "owner",
          "type": "address"
        },
        {
          "indexed": true,
          "internalType": "address",
          "name": "nftcontract",
          "type": "address"
        },
        {
          "indexed": true,
          "internalType": "uint256",
          "name": "tokenId",
          "type": "uint256"
        }
      ],
      "name": "Claim",
      "type": "event"
    },
    {
      "anonymous": false,
      "inputs": [
        {
          "indexed": true,
          "internalType": "address",
          "name": "owner",
          "type": "address"
        },
        {
          "indexed": true,
          "internalType": "address",
          "name": "nftcontract",
          "type": "address"
        },
        {
          "indexed": true,
          "internalType": "uint256",
          "name": "tokenId",
          "type": "uint256"
        }
      ],
      "name": "Registe",
      "type": "event"
    },
    {
      "anonymous": false,
      "inputs": [
        {
          "indexed": true,
          "internalType": "address",
          "name": "voter",
          "type": "address"
        },
        {
          "indexed": true,
          "internalType": "address",
          "name": "nftcontract",
          "type": "address"
        },
        {
          "indexed": true,
          "internalType": "uint256",
          "name": "tokenId",
          "type": "uint256"
        },
        {
          "indexed": false,
          "internalType": "uint256",
          "name": "power",
          "type": "uint256"
        },
        {
          "indexed": false,
          "internalType": "uint256",
          "name": "votes",
          "type": "uint256"
        }
      ],
      "name": "Vote",
      "type": "event"
    },
    {
      "inputs": [],
      "name": "DURATION",
      "outputs": [
        {
          "internalType": "uint256",
          "name": "",
          "type": "uint256"
        }
      ],
      "stateMutability": "view",
      "type": "function",
      "constant": true
    },
    {
      "inputs": [
        {
          "internalType": "uint256",
          "name": "",
          "type": "uint256"
        }
      ],
      "name": "_allworks",
      "outputs": [
        {
          "internalType": "address",
          "name": "owner",
          "type": "address"
        },
        {
          "internalType": "address",
          "name": "nftcontract",
          "type": "address"
        },
        {
          "internalType": "uint256",
          "name": "tokenId",
          "type": "uint256"
        },
        {
          "internalType": "enum Art.ArtState",
          "name": "status",
          "type": "uint8"
        },
        {
          "internalType": "uint256",
          "name": "started",
          "type": "uint256"
        },
        {
          "internalType": "uint256",
          "name": "update",
          "type": "uint256"
        },
        {
          "internalType": "uint256",
          "name": "power",
          "type": "uint256"
        },
        {
          "internalType": "uint256",
          "name": "votes",
          "type": "uint256"
        },
        {
          "internalType": "uint256",
          "name": "price",
          "type": "uint256"
        }
      ],
      "stateMutability": "view",
      "type": "function",
      "constant": true
    },
    {
      "inputs": [
        {
          "internalType": "uint256",
          "name": "",
          "type": "uint256"
        },
        {
          "internalType": "uint256",
          "name": "",
          "type": "uint256"
        }
      ],
      "name": "_bids",
      "outputs": [
        {
          "internalType": "address",
          "name": "offer",
          "type": "address"
        },
        {
          "internalType": "uint256",
          "name": "price",
          "type": "uint256"
        }
      ],
      "stateMutability": "view",
      "type": "function",
      "constant": true
    },
    {
      "inputs": [
        {
          "internalType": "address",
          "name": "",
          "type": "address"
        },
        {
          "internalType": "uint256",
          "name": "",
          "type": "uint256"
        }
      ],
      "name": "_registedWorks",
      "outputs": [
        {
          "internalType": "uint256",
          "name": "",
          "type": "uint256"
        }
      ],
      "stateMutability": "view",
      "type": "function",
      "constant": true
    },
    {
      "inputs": [],
      "name": "_token",
      "outputs": [
        {
          "internalType": "address",
          "name": "",
          "type": "address"
        }
      ],
      "stateMutability": "view",
      "type": "function",
      "constant": true
    },
    {
      "inputs": [
        {
          "internalType": "address",
          "name": "",
          "type": "address"
        }
      ],
      "name": "_voteTime",
      "outputs": [
        {
          "internalType": "uint256",
          "name": "",
          "type": "uint256"
        }
      ],
      "stateMutability": "view",
      "type": "function",
      "constant": true
    },
    {
      "inputs": [
        {
          "internalType": "address",
          "name": "nftcontract",
          "type": "address"
        },
        {
          "internalType": "uint256",
          "name": "tokenId",
          "type": "uint256"
        },
        {
          "internalType": "uint256",
          "name": "price",
          "type": "uint256"
        }
      ],
      "name": "registe",
      "outputs": [],
      "stateMutability": "nonpayable",
      "type": "function"
    },
    {
      "inputs": [
        {
          "internalType": "address",
          "name": "nftcontract",
          "type": "address"
        },
        {
          "internalType": "uint256",
          "name": "tokenId",
          "type": "uint256"
        },
        {
          "internalType": "uint256",
          "name": "votes",
          "type": "uint256"
        }
      ],
      "name": "vote",
      "outputs": [],
      "stateMutability": "nonpayable",
      "type": "function"
    },
    {
      "inputs": [
        {
          "internalType": "address",
          "name": "nftcontract",
          "type": "address"
        },
        {
          "internalType": "uint256",
          "name": "tokenId",
          "type": "uint256"
        }
      ],
      "name": "bid",
      "outputs": [],
      "stateMutability": "payable",
      "type": "function",
      "payable": true
    },
    {
      "inputs": [
        {
          "internalType": "address",
          "name": "nftcontract",
          "type": "address"
        },
        {
          "internalType": "uint256",
          "name": "tokenId",
          "type": "uint256"
        }
      ],
      "name": "auction",
      "outputs": [],
      "stateMutability": "nonpayable",
      "type": "function"
    },
    {
      "inputs": [
        {
          "internalType": "address",
          "name": "nftcontract",
          "type": "address"
        },
        {
          "internalType": "uint256",
          "name": "tokenId",
          "type": "uint256"
        }
      ],
      "name": "claim",
      "outputs": [],
      "stateMutability": "nonpayable",
      "type": "function"
    },
    {
      "inputs": [
        {
          "internalType": "address",
          "name": "nftcontract",
          "type": "address"
        },
        {
          "internalType": "uint256",
          "name": "tokenId",
          "type": "uint256"
        }
      ],
      "name": "exit",
      "outputs": [],
      "stateMutability": "nonpayable",
      "type": "function"
    }
  ],
  "bytecode": "0x608060405234801561001057600080fd5b506040516114953803806114958339818101604052602081101561003357600080fd5b8101908080519060200190929190505050806000806101000a81548173ffffffffffffffffffffffffffffffffffffffff021916908373ffffffffffffffffffffffffffffffffffffffff16021790555050611401806100946000396000f3fe6080604052600436106100a75760003560e01c8063aad3ec9611610064578063aad3ec96146102ca578063c3627e0314610325578063dd065c5e1461038a578063ecd0c0c314610448578063ef693bed14610489578063f1ee3593146104e4576100a7565b80631be05289146100ac5780632a4a1b73146100d757806334f1e92a1461013c57806359d667a5146101ab57806373280b49146101f957806387e1d07f1461026f575b600080fd5b3480156100b857600080fd5b506100c1610549565b6040518082815260200191505060405180910390f35b3480156100e357600080fd5b5061013a600480360360608110156100fa57600080fd5b81019080803573ffffffffffffffffffffffffffffffffffffffff169060200190929190803590602001909291908035906020019092919050505061054e565b005b34801561014857600080fd5b506101956004803603604081101561015f57600080fd5b81019080803573ffffffffffffffffffffffffffffffffffffffff169060200190929190803590602001909291905050506107da565b6040518082815260200191505060405180910390f35b6101f7600480360360408110156101c157600080fd5b81019080803573ffffffffffffffffffffffffffffffffffffffff169060200190929190803590602001909291905050506107ff565b005b34801561020557600080fd5b5061023c6004803603604081101561021c57600080fd5b810190808035906020019092919080359060200190929190505050610b59565b604051808373ffffffffffffffffffffffffffffffffffffffff1681526020018281526020019250505060405180910390f35b34801561027b57600080fd5b506102c86004803603604081101561029257600080fd5b81019080803573ffffffffffffffffffffffffffffffffffffffff16906020019092919080359060200190929190505050610bb7565b005b3480156102d657600080fd5b50610323600480360360408110156102ed57600080fd5b81019080803573ffffffffffffffffffffffffffffffffffffffff16906020019092919080359060200190929190505050610d25565b005b34801561033157600080fd5b506103746004803603602081101561034857600080fd5b81019080803573ffffffffffffffffffffffffffffffffffffffff169060200190929190505050610f70565b6040518082815260200191505060405180910390f35b34801561039657600080fd5b506103c3600480360360208110156103ad57600080fd5b8101908080359060200190929190505050610f88565b604051808a73ffffffffffffffffffffffffffffffffffffffff1681526020018973ffffffffffffffffffffffffffffffffffffffff16815260200188815260200187600381111561041157fe5b8152602001868152602001858152602001848152602001838152602001828152602001995050505050505050505060405180910390f35b34801561045457600080fd5b5061045d611030565b604051808273ffffffffffffffffffffffffffffffffffffffff16815260200191505060405180910390f35b34801561049557600080fd5b506104e2600480360360408110156104ac57600080fd5b81019080803573ffffffffffffffffffffffffffffffffffffffff16906020019092919080359060200190929190505050611054565b005b3480156104f057600080fd5b506105476004803603606081101561050757600080fd5b81019080803573ffffffffffffffffffffffffffffffffffffffff1690602001909291908035906020019092919080359060200190929190505050611058565b005b60b481565b6000600360008573ffffffffffffffffffffffffffffffffffffffff1673ffffffffffffffffffffffffffffffffffffffff168152602001908152602001600020600084815260200190815260200160002054905060008111610619576040517f08c379a00000000000000000000000000000000000000000000000000000000081526004018080602001828103825260178152602001807f566f74656420617274776f726b206e6f7420657869737400000000000000000081525060200191505060405180910390fd5b600060018083038154811061062a57fe5b906000526020600020906009020190506000600381111561064757fe5b8160030160009054906101000a900460ff16600381111561066457fe5b146106d7576040517f08c379a000000000000000000000000000000000000000000000000000000000815260040180806020018281038252601c8152602001807f417274776f726b20737461747573206973206e6f74206163746976650000000081525060200191505060405180910390fd5b828160060154826004015442038360040154846005015403816106f657fe5b040201816006018190555042816005018190555082816007015401816007018190555042600460003373ffffffffffffffffffffffffffffffffffffffff1673ffffffffffffffffffffffffffffffffffffffff16815260200190815260200160002081905550838573ffffffffffffffffffffffffffffffffffffffff163373ffffffffffffffffffffffffffffffffffffffff167fc0ef3980db735346bbd4298f2b2bd4b0a2ebb2e38a4ec591f2c869c2cbdbd48384600601548560070154604051808381526020018281526020019250505060405180910390a45050505050565b6003602052816000526040600020602052806000526040600020600091509150505481565b6000600360008473ffffffffffffffffffffffffffffffffffffffff1673ffffffffffffffffffffffffffffffffffffffff1681526020019081526020016000206000838152602001908152602001600020549050600081116108ca576040517f08c379a00000000000000000000000000000000000000000000000000000000081526004018080602001828103825260158152602001807f42696420617274776f726b206e6f74206578697374000000000000000000000081525060200191505060405180910390fd5b60006001808303815481106108db57fe5b9060005260206000209060090201905060b48160050154420311156109275760028160030160006101000a81548160ff0219169083600381111561091b57fe5b02179055505050610b55565b60003490508160080154811015610989576040517f08c379a00000000000000000000000000000000000000000000000000000000081526004018080602001828103825260338152602001806113996033913960400191505060405180910390fd5b600060026000858152602001908152602001600020805490501115610a4957600260008481526020019081526020016000206001600260008681526020019081526020016000208054905003815481106109df57fe5b9060005260206000209060020201600101548111610a48576040517f08c379a00000000000000000000000000000000000000000000000000000000081526004018080602001828103825260258152602001806113746025913960400191505060405180910390fd5b5b6002600084815260200190815260200160002060405180604001604052803373ffffffffffffffffffffffffffffffffffffffff16815260200183815250908060018154018082558091505060019003906000526020600020906002020160009091909190915060008201518160000160006101000a81548173ffffffffffffffffffffffffffffffffffffffff021916908373ffffffffffffffffffffffffffffffffffffffff16021790555060208201518160010155505042826005018190555042813373ffffffffffffffffffffffffffffffffffffffff167f19421268847f42dd61705778018ddfc43bcdce8517e7a630acb12f122c70948160405160405180910390a45050505b5050565b60026020528160005260406000208181548110610b7257fe5b9060005260206000209060020201600091509150508060000160009054906101000a900473ffffffffffffffffffffffffffffffffffffffff16908060010154905082565b6000600360008473ffffffffffffffffffffffffffffffffffffffff1673ffffffffffffffffffffffffffffffffffffffff168152602001908152602001600020600083815260200190815260200160002054905060008111610c82576040517f08c379a00000000000000000000000000000000000000000000000000000000081526004018080602001828103825260198152602001807f41756374696f6e20617274776f726b206e6f742065786973740000000000000081525060200191505060405180910390fd5b6000600180830381548110610c9357fe5b9060005260206000209060090201905060018160030160006101000a81548160ff02191690836003811115610cc457fe5b0217905550428160040181905550428160050181905550828473ffffffffffffffffffffffffffffffffffffffff167faeb754e5ed4346dc0fcd0c54ce5ff8de9e292dc4aca9346739bf3bda075d433e60405160405180910390a350505050565b6000600360008473ffffffffffffffffffffffffffffffffffffffff1673ffffffffffffffffffffffffffffffffffffffff168152602001908152602001600020600083815260200190815260200160002054905060008111610df0576040517f08c379a00000000000000000000000000000000000000000000000000000000081526004018080602001828103825260178152602001807f436c61696d20617274776f726b206e6f7420657869737400000000000000000081525060200191505060405180910390fd5b6000600180830381548110610e0157fe5b9060005260206000209060090201905060016003811115610e1e57fe5b8160030160009054906101000a900460ff166003811115610e3b57fe5b148015610e4e575060b481600501544203115b15610e7a5760028160030160006101000a81548160ff02191690836003811115610e7457fe5b02179055505b3373ffffffffffffffffffffffffffffffffffffffff166108fc82600801549081150290604051600060405180830381858888f19350505050158015610ec4573d6000803e3d6000fd5b5060038160030160006101000a81548160ff02191690836003811115610ee657fe5b0217905550828473ffffffffffffffffffffffffffffffffffffffff168260000160009054906101000a900473ffffffffffffffffffffffffffffffffffffffff1673ffffffffffffffffffffffffffffffffffffffff167f70eb43c4a8ae8c40502dcf22436c509c28d6ff421cf07c491be56984bd98706860405160405180910390a450505050565b60046020528060005260406000206000915090505481565b60018181548110610f9557fe5b90600052602060002090600902016000915090508060000160009054906101000a900473ffffffffffffffffffffffffffffffffffffffff16908060010160009054906101000a900473ffffffffffffffffffffffffffffffffffffffff16908060020154908060030160009054906101000a900460ff16908060040154908060050154908060060154908060070154908060080154905089565b60008054906101000a900473ffffffffffffffffffffffffffffffffffffffff1681565b5050565b6000600360008573ffffffffffffffffffffffffffffffffffffffff1673ffffffffffffffffffffffffffffffffffffffff1681526020019081526020016000206000848152602001908152602001600020541461111e576040517f08c379a00000000000000000000000000000000000000000000000000000000081526004018080602001828103825260188152602001807f417274776f726b20616c7265616479207265676973746564000000000000000081525060200191505060405180910390fd5b60016040518061012001604052803373ffffffffffffffffffffffffffffffffffffffff1681526020018573ffffffffffffffffffffffffffffffffffffffff1681526020018481526020016000600381111561117757fe5b8152602001438152602001428152602001600181526020016001815260200183815250908060018154018082558091505060019003906000526020600020906009020160009091909190915060008201518160000160006101000a81548173ffffffffffffffffffffffffffffffffffffffff021916908373ffffffffffffffffffffffffffffffffffffffff16021790555060208201518160010160006101000a81548173ffffffffffffffffffffffffffffffffffffffff021916908373ffffffffffffffffffffffffffffffffffffffff1602179055506040820151816002015560608201518160030160006101000a81548160ff0219169083600381111561127f57fe5b02179055506080820151816004015560a0820151816005015560c0820151816006015560e0820151816007015561010082015181600801555050600180549050600360008573ffffffffffffffffffffffffffffffffffffffff1673ffffffffffffffffffffffffffffffffffffffff168152602001908152602001600020600084815260200190815260200160002081905550818373ffffffffffffffffffffffffffffffffffffffff163373ffffffffffffffffffffffffffffffffffffffff167fbcb2fee6e709c6b1cf6fa62cc4d108bcc7fa61589718427c42145c7689f90b2760405160405180910390a450505056fe426964207072696365206c6f776572207468616e206c617374206f66666572207072696365426964207072696365206c6f776572207468616e206d696e696d756e207072696365206f776e65722063616e20616363657074a26469706673582212202f710b6fc9ce596c1a641cc64cec770633d9538e9d5c13f37d2793a66ccf265a64736f6c63430007000033",
  "immutableReferences": {},
  "source": "// SPDX-License-Identifier: MIT\r\npragma solidity ^0.7.0;\r\n\r\n/**\r\n * @dev Required interface of an ERC721 compliant contract.\r\n */\r\ninterface IERC721 {\r\n    /**\r\n     * @dev Emitted when `tokenId` token is transferred from `from` to `to`.\r\n     */\r\n    event Transfer(address indexed from, address indexed to, uint256 indexed tokenId);\r\n\r\n    /**\r\n     * @dev Emitted when `owner` enables `approved` to manage the `tokenId` token.\r\n     */\r\n    event Approval(address indexed owner, address indexed approved, uint256 indexed tokenId);\r\n\r\n    /**\r\n     * @dev Emitted when `owner` enables or disables (`approved`) `operator` to manage all of its assets.\r\n     */\r\n    event ApprovalForAll(address indexed owner, address indexed operator, bool approved);\r\n\r\n    /**\r\n     * @dev Returns the number of tokens in ``owner``'s account.\r\n     */\r\n    function balanceOf(address owner) external view returns (uint256 balance);\r\n\r\n    /**\r\n     * @dev Returns the owner of the `tokenId` token.\r\n     *\r\n     * Requirements:\r\n     *\r\n     * - `tokenId` must exist.\r\n     */\r\n    function ownerOf(uint256 tokenId) external view returns (address owner);\r\n\r\n    /**\r\n     * @dev Safely transfers `tokenId` token from `from` to `to`, checking first that contract recipients\r\n     * are aware of the ERC721 protocol to prevent tokens from being forever locked.\r\n     *\r\n     * Requirements:\r\n     *\r\n     * - `from` cannot be the zero address.\r\n     * - `to` cannot be the zero address.\r\n     * - `tokenId` token must exist and be owned by `from`.\r\n     * - If the caller is not `from`, it must be have been allowed to move this token by either {approve} or {setApprovalForAll}.\r\n     * - If `to` refers to a smart contract, it must implement {IERC721Receiver-onERC721Received}, which is called upon a safe transfer.\r\n     *\r\n     * Emits a {Transfer} event.\r\n     */\r\n    function safeTransferFrom(address from, address to, uint256 tokenId) external;\r\n\r\n    /**\r\n     * @dev Transfers `tokenId` token from `from` to `to`.\r\n     *\r\n     * WARNING: Usage of this method is discouraged, use {safeTransferFrom} whenever possible.\r\n     *\r\n     * Requirements:\r\n     *\r\n     * - `from` cannot be the zero address.\r\n     * - `to` cannot be the zero address.\r\n     * - `tokenId` token must be owned by `from`.\r\n     * - If the caller is not `from`, it must be approved to move this token by either {approve} or {setApprovalForAll}.\r\n     *\r\n     * Emits a {Transfer} event.\r\n     */\r\n    function transferFrom(address from, address to, uint256 tokenId) external;\r\n\r\n    /**\r\n     * @dev Gives permission to `to` to transfer `tokenId` token to another account.\r\n     * The approval is cleared when the token is transferred.\r\n     *\r\n     * Only a single account can be approved at a time, so approving the zero address clears previous approvals.\r\n     *\r\n     * Requirements:\r\n     *\r\n     * - The caller must own the token or be an approved operator.\r\n     * - `tokenId` must exist.\r\n     *\r\n     * Emits an {Approval} event.\r\n     */\r\n    function approve(address to, uint256 tokenId) external;\r\n\r\n    /**\r\n     * @dev Returns the account approved for `tokenId` token.\r\n     *\r\n     * Requirements:\r\n     *\r\n     * - `tokenId` must exist.\r\n     */\r\n    function getApproved(uint256 tokenId) external view returns (address operator);\r\n\r\n    /**\r\n     * @dev Approve or remove `operator` as an operator for the caller.\r\n     * Operators can call {transferFrom} or {safeTransferFrom} for any token owned by the caller.\r\n     *\r\n     * Requirements:\r\n     *\r\n     * - The `operator` cannot be the caller.\r\n     *\r\n     * Emits an {ApprovalForAll} event.\r\n     */\r\n    function setApprovalForAll(address operator, bool _approved) external;\r\n\r\n    /**\r\n     * @dev Returns if the `operator` is allowed to manage all of the assets of `owner`.\r\n     *\r\n     * See {setApprovalForAll}\r\n     */\r\n    function isApprovedForAll(address owner, address operator) external view returns (bool);\r\n\r\n    /**\r\n      * @dev Safely transfers `tokenId` token from `from` to `to`.\r\n      *\r\n      * Requirements:\r\n      *\r\n      * - `from` cannot be the zero address.\r\n      * - `to` cannot be the zero address.\r\n      * - `tokenId` token must exist and be owned by `from`.\r\n      * - If the caller is not `from`, it must be approved to move this token by either {approve} or {setApprovalForAll}.\r\n      * - If `to` refers to a smart contract, it must implement {IERC721Receiver-onERC721Received}, which is called upon a safe transfer.\r\n      *\r\n      * Emits a {Transfer} event.\r\n      */\r\n    function safeTransferFrom(address from, address to, uint256 tokenId, bytes calldata data) external;\r\n}\r\n\r\n/**\r\n * @dev Interface of the ERC20 standard as defined in the EIP.\r\n */\r\ninterface IERC20 {\r\n    /**\r\n     * @dev Returns the amount of tokens in existence.\r\n     */\r\n    function totalSupply() external view returns (uint256);\r\n\r\n    /**\r\n     * @dev Returns the amount of tokens owned by `account`.\r\n     */\r\n    function balanceOf(address account) external view returns (uint256);\r\n\r\n    /**\r\n     * @dev Moves `amount` tokens from the caller's account to `recipient`.\r\n     *\r\n     * Returns a boolean value indicating whether the operation succeeded.\r\n     *\r\n     * Emits a {Transfer} event.\r\n     */\r\n    function transfer(address recipient, uint256 amount) external returns (bool);\r\n\r\n    /**\r\n     * @dev Returns the remaining number of tokens that `spender` will be\r\n     * allowed to spend on behalf of `owner` through {transferFrom}. This is\r\n     * zero by default.\r\n     *\r\n     * This value changes when {approve} or {transferFrom} are called.\r\n     */\r\n    function allowance(address owner, address spender) external view returns (uint256);\r\n\r\n    /**\r\n     * @dev Sets `amount` as the allowance of `spender` over the caller's tokens.\r\n     *\r\n     * Returns a boolean value indicating whether the operation succeeded.\r\n     *\r\n     * IMPORTANT: Beware that changing an allowance with this method brings the risk\r\n     * that someone may use both the old and the new allowance by unfortunate\r\n     * transaction ordering. One possible solution to mitigate this race\r\n     * condition is to first reduce the spender's allowance to 0 and set the\r\n     * desired value afterwards:\r\n     * https://github.com/ethereum/EIPs/issues/20#issuecomment-263524729\r\n     *\r\n     * Emits an {Approval} event.\r\n     */\r\n    function approve(address spender, uint256 amount) external returns (bool);\r\n\r\n    /**\r\n     * @dev Moves `amount` tokens from `sender` to `recipient` using the\r\n     * allowance mechanism. `amount` is then deducted from the caller's\r\n     * allowance.\r\n     *\r\n     * Returns a boolean value indicating whether the operation succeeded.\r\n     *\r\n     * Emits a {Transfer} event.\r\n     */\r\n    function transferFrom(address sender, address recipient, uint256 amount) external returns (bool);\r\n\r\n    /**\r\n     * @dev Emitted when `value` tokens are moved from one account (`from`) to\r\n     * another (`to`).\r\n     *\r\n     * Note that `value` may be zero.\r\n     */\r\n    event Transfer(address indexed from, address indexed to, uint256 value);\r\n\r\n    /**\r\n     * @dev Emitted when the allowance of a `spender` for an `owner` is set by\r\n     * a call to {approve}. `value` is the new allowance.\r\n     */\r\n    event Approval(address indexed owner, address indexed spender, uint256 value);\r\n}\r\n\r\ncontract Art{\r\n    /**\r\n     * @dev Emitted when \r\n    */\r\n    event Registe(address indexed owner, address indexed nftcontract, uint256 indexed tokenId);\r\n    \r\n    /**\r\n     * @dev Emitted when\r\n    */ \r\n    event Vote(address indexed voter, address indexed nftcontract, uint256 indexed tokenId, uint256 power,  uint256 votes);\r\n    \r\n    /**\r\n     * @dev Emitted when \r\n    */  \r\n    event Auction(address indexed owner, uint256 indexed tokenId);\r\n\r\n    /**\r\n     * @dev Emitted when \r\n    */  \r\n    event Bid(address indexed bider, uint256 indexed price, uint256 indexed time);\r\n\r\n    /**\r\n     * @dev Emitted when \r\n    */  \r\n    event Claim(address indexed owner, address indexed nftcontract, uint256 indexed tokenId);\r\n\r\n    // @notice Possible states that a artwork may be in\r\n    enum ArtState {\r\n        Active,\r\n        Auction,\r\n        Sold,\r\n        Closed\r\n    }\r\n\r\n    uint256 public constant DURATION = 3 minutes;\r\n\r\n    // Platform token\r\n    address public _token;\r\n\r\n    // use for list artworks\r\n    Artwork[] public _allworks;\r\n\r\n    // bids history of allworks[i]\r\n    mapping (uint256 => Record[]) public _bids;\r\n    \r\n    // use for registe artwork\r\n    mapping (address => mapping(uint256 => uint256)) public _registedWorks;\r\n    \r\n    // record user vote time\r\n    mapping (address => uint256) public _voteTime;\r\n\r\n    struct Record {\r\n        address offer;\r\n        uint256 price;\r\n    }\r\n\r\n    // Artwork \r\n    struct Artwork {\r\n        // owner\r\n        address owner;\r\n\r\n        // nftcontract address\r\n        address nftcontract;\r\n        \r\n        // tokenId\r\n        uint256 tokenId;\r\n        \r\n        ArtState status;\r\n        \r\n        // time artwork start register or start auction\r\n        uint256 started;\r\n        \r\n        // last vote time\r\n        uint256 update;\r\n\r\n        // weighted votes \r\n        // newpower = (update - start)/(now -start) * power + newvotes\r\n        uint256 power;\r\n\r\n        // the total number of votes the artwork had\r\n        uint256 votes;\r\n\r\n        // the minimum price owner can accept units in ETH\r\n        uint256 price;\r\n    }\r\n    \r\n    // registe artwork to platform\r\n    function registe(address nftcontract, uint256 tokenId, uint256 price) external {\r\n        require(_registedWorks[nftcontract][tokenId] == 0, \"Artwork already registed\");\r\n\r\n        // TODO:: In demo mode not transfer ownership\r\n        // IERC721(nftcontract).transferFrom(msg.sender, address(this), tokenId)\r\n\r\n        _allworks.push(Artwork({\r\n            owner: msg.sender,\r\n            started: block.number,\r\n            nftcontract: nftcontract,\r\n            tokenId: tokenId,\r\n            status: ArtState.Active,\r\n            // initial register treat as one vote but not in record\r\n            update: block.timestamp,\r\n            power: 1,\r\n            votes: 1,\r\n            price: price\r\n        }));\r\n\r\n        _registedWorks[nftcontract][tokenId] = _allworks.length;\r\n\r\n        emit Registe(msg.sender, nftcontract, tokenId);\r\n    }\r\n\r\n    // vote an artwork\r\n    function vote(address nftcontract, uint256 tokenId, uint256 votes) external {\r\n\r\n        uint256 index = _registedWorks[nftcontract][tokenId];\r\n        require(index > 0, \"Voted artwork not exist\");\r\n        \r\n        // uint256 extra = block.timestamp - _voteTime[msg.sender] > 1 days ? 1 : 0; \r\n        \r\n        // this require approve before, if transfer only one per day, not necessary\r\n        // if (votes - extra > 0) {\r\n        //     IERC20(_token).transferFrom(msg.sender, address(this), votes - extra);\r\n        // }\r\n\r\n        Artwork storage work = _allworks[index - 1];\r\n        require(work.status == ArtState.Active, \"Artwork status is not active\");\r\n\r\n        work.power = (work.update - work.started)/(block.timestamp - work.started) * work.power + votes;\r\n        work.update = block.timestamp;\r\n        work.votes = work.votes + votes;\r\n        \r\n        _voteTime[msg.sender] = block.timestamp;\r\n\r\n        emit Vote(msg.sender, nftcontract, tokenId, work.power, work.votes);\r\n    }\r\n\r\n    // use this function to bid nft\r\n    function bid(address nftcontract, uint256 tokenId) external payable {\r\n        uint256 index = _registedWorks[nftcontract][tokenId];\r\n        require(index > 0, \"Bid artwork not exist\");\r\n\r\n        Artwork storage work = _allworks[index - 1];\r\n        // TODO:: in demo do not required\r\n        // require(work.status == ArtState.Auction, \"Artwork status is not auction\");\r\n\r\n        // last bid time exceed longest wait time.\r\n        if (block.timestamp - work.update > DURATION) {\r\n            work.status = ArtState.Sold;\r\n            return;\r\n        }\r\n\r\n        uint256 price = msg.value;\r\n        require(price >= work.price, \"Bid price lower than minimun price owner can accept\");\r\n\r\n        if (_bids[index].length > 0) {        \r\n            require(price > _bids[index][_bids[index].length - 1].price, \"Bid price lower than last offer price\");\r\n        }\r\n\r\n        _bids[index].push(Record({\r\n            offer: msg.sender,\r\n            price: price\r\n        }));\r\n        \r\n        work.update = block.timestamp;\r\n\r\n        emit Bid(msg.sender, price, block.timestamp);\r\n    }\r\n\r\n    // push a nft into Auction state\r\n    function auction(address nftcontract, uint256 tokenId) external {        \r\n        uint256 index = _registedWorks[nftcontract][tokenId];\r\n        require(index > 0, \"Auction artwork not exist\");\r\n\r\n        Artwork storage work = _allworks[index - 1];\r\n        // TODO:: in demo do not required\r\n        // require(work.status == ArtState.Active, \"Artwork status is not active\");\r\n\r\n        // TODO::In demo do not require owner only\r\n        // require(msg.sender == work.owner, \"Only owner can auction artwork\");\r\n\r\n        work.status = ArtState.Auction;\r\n        work.started = block.timestamp;\r\n        work.update = block.timestamp;\r\n\r\n        emit Auction(nftcontract, tokenId);\r\n    }\r\n\r\n    // use this claim reward\r\n    function claim(address nftcontract, uint256 tokenId) external {\r\n        uint256 index = _registedWorks[nftcontract][tokenId];\r\n        require(index > 0, \"Claim artwork not exist\"); \r\n\r\n        Artwork storage work = _allworks[index - 1];\r\n        // last bid time exceed longest wait time.\r\n        if (work.status == ArtState.Auction && block.timestamp - work.update > DURATION) {\r\n            work.status = ArtState.Sold;\r\n        }\r\n\r\n        // TODO:: in demo do not required\r\n        // require(work.status == ArtState.Sold, \"Only sold artwork can claim\");\r\n\r\n        //TODO:: in demo do not distinguish from sender \r\n        payable(msg.sender).transfer(work.price);\r\n\r\n        work.status = ArtState.Closed;\r\n\r\n        emit Claim(work.owner, nftcontract, tokenId);\r\n    }\r\n    \r\n    //    \r\n    function exit(address nftcontract, uint256 tokenId) external {\r\n        // TODO:: \r\n    }\r\n    \r\n    /**\r\n     * @dev Initializes the contract by setting a `token` to the platform token.\r\n    */\r\n    constructor (address token_) {\r\n        _token = token_;\r\n    }\r\n}",
  "sourcePath": "C:/Users/Peter/WAKANDA-NFT-MARKET-PLACE-/contracts/Art.sol",
  "compiler": {
    "name": "solc",
    "version": "0.7.0+commit.9e61f92b.Emscripten.clang"
  },
  "schemaVersion": "3.4.1",
  "updatedAt": "2021-06-25T08:02:01.590Z",
  "networkType": "ethereum",
  "devdoc": {
    "events": {
      "Auction(address,uint256)": {
        "details": "Emitted when "
      },
      "Bid(address,uint256,uint256)": {
        "details": "Emitted when "
      },
      "Claim(address,address,uint256)": {
        "details": "Emitted when "
      },
      "Registe(address,address,uint256)": {
        "details": "Emitted when "
      },
      "Vote(address,address,uint256,uint256,uint256)": {
        "details": "Emitted when"
      }
    },
    "kind": "dev",
    "methods": {
      "constructor": {
        "details": "Initializes the contract by setting a `token` to the platform token."
      }
    },
    "version": 1
  },
  "userdoc": {
    "kind": "user",
    "methods": {},
    "version": 1
  }
}